{
  "_format": "hh-sol-artifact-1",
  "contractName": "ICO",
  "sourceName": "contracts/ICO.sol",
  "abi": [
    {
      "inputs": [
        {
          "internalType": "uint256",
          "name": "_rate",
          "type": "uint256"
        },
        {
          "internalType": "address payable",
          "name": "_wallet",
          "type": "address"
        },
        {
          "internalType": "contract ERC20",
          "name": "_token",
          "type": "address"
        },
        {
          "internalType": "address",
          "name": "_tokenWallet",
          "type": "address"
        },
        {
          "internalType": "uint256",
          "name": "_openingTime",
          "type": "uint256"
        },
        {
          "internalType": "uint256",
          "name": "_closingTime",
          "type": "uint256"
        },
        {
          "internalType": "uint256",
          "name": "_minRate",
          "type": "uint256"
        },
        {
          "internalType": "uint256",
          "name": "_maxRate",
          "type": "uint256"
        }
      ],
      "stateMutability": "nonpayable",
      "type": "constructor"
    },
    {
      "anonymous": false,
      "inputs": [
        {
          "indexed": false,
          "internalType": "uint256",
          "name": "prevClosingTime",
          "type": "uint256"
        },
        {
          "indexed": false,
          "internalType": "uint256",
          "name": "newClosingTime",
          "type": "uint256"
        }
      ],
      "name": "ChangedClosignTime",
      "type": "event"
    },
    {
      "anonymous": false,
      "inputs": [
        {
          "indexed": false,
          "internalType": "uint256",
          "name": "prevOpeningTime",
          "type": "uint256"
        },
        {
          "indexed": false,
          "internalType": "uint256",
          "name": "newOpeningTime",
          "type": "uint256"
        }
      ],
      "name": "ChangedOpeningTime",
      "type": "event"
    },
    {
      "anonymous": false,
      "inputs": [
        {
          "indexed": true,
          "internalType": "address",
          "name": "previousOwner",
          "type": "address"
        },
        {
          "indexed": true,
          "internalType": "address",
          "name": "newOwner",
          "type": "address"
        }
      ],
      "name": "OwnershipTransferred",
      "type": "event"
    },
    {
      "anonymous": false,
      "inputs": [
        {
          "indexed": true,
          "internalType": "address",
          "name": "purchaser",
          "type": "address"
        },
        {
          "indexed": true,
          "internalType": "address",
          "name": "beneficiary",
          "type": "address"
        },
        {
          "indexed": false,
          "internalType": "uint256",
          "name": "value",
          "type": "uint256"
        },
        {
          "indexed": false,
          "internalType": "uint256",
          "name": "amount",
          "type": "uint256"
        }
      ],
      "name": "TokensPurchased",
      "type": "event"
    },
    {
      "inputs": [
        {
          "internalType": "uint256",
          "name": "newClosingTime",
          "type": "uint256"
        }
      ],
      "name": "_setClosingTime",
      "outputs": [],
      "stateMutability": "nonpayable",
      "type": "function"
    },
    {
      "inputs": [
        {
          "internalType": "uint256",
          "name": "newOpeningTime",
          "type": "uint256"
        }
      ],
      "name": "_setOpeningTime",
      "outputs": [],
      "stateMutability": "nonpayable",
      "type": "function"
    },
    {
      "inputs": [
        {
          "internalType": "address",
          "name": "beneficiary",
          "type": "address"
        }
      ],
      "name": "buyTokens",
      "outputs": [],
      "stateMutability": "payable",
      "type": "function"
    },
    {
      "inputs": [],
      "name": "closingTime",
      "outputs": [
        {
          "internalType": "uint256",
          "name": "",
          "type": "uint256"
        }
      ],
      "stateMutability": "view",
      "type": "function"
    },
    {
      "inputs": [],
      "name": "hasClosed",
      "outputs": [
        {
          "internalType": "bool",
          "name": "",
          "type": "bool"
        }
      ],
      "stateMutability": "view",
      "type": "function"
    },
    {
      "inputs": [],
      "name": "isOpen",
      "outputs": [
        {
          "internalType": "bool",
          "name": "",
          "type": "bool"
        }
      ],
      "stateMutability": "view",
      "type": "function"
    },
    {
      "inputs": [],
      "name": "openingTime",
      "outputs": [
        {
          "internalType": "uint256",
          "name": "",
          "type": "uint256"
        }
      ],
      "stateMutability": "view",
      "type": "function"
    },
    {
      "inputs": [],
      "name": "owner",
      "outputs": [
        {
          "internalType": "address",
          "name": "",
          "type": "address"
        }
      ],
      "stateMutability": "view",
      "type": "function"
    },
    {
      "inputs": [],
      "name": "rate",
      "outputs": [
        {
          "internalType": "uint256",
          "name": "",
          "type": "uint256"
        }
      ],
      "stateMutability": "view",
      "type": "function"
    },
    {
      "inputs": [],
      "name": "remainingTokens",
      "outputs": [
        {
          "internalType": "uint256",
          "name": "",
          "type": "uint256"
        }
      ],
      "stateMutability": "view",
      "type": "function"
    },
    {
      "inputs": [],
      "name": "renounceOwnership",
      "outputs": [],
      "stateMutability": "nonpayable",
      "type": "function"
    },
    {
      "inputs": [],
      "name": "token",
      "outputs": [
        {
          "internalType": "contract IERC20",
          "name": "",
          "type": "address"
        }
      ],
      "stateMutability": "view",
      "type": "function"
    },
    {
      "inputs": [],
      "name": "tokenWallet",
      "outputs": [
        {
          "internalType": "address",
          "name": "",
          "type": "address"
        }
      ],
      "stateMutability": "view",
      "type": "function"
    },
    {
      "inputs": [
        {
          "internalType": "address",
          "name": "newOwner",
          "type": "address"
        }
      ],
      "name": "transferOwnership",
      "outputs": [],
      "stateMutability": "nonpayable",
      "type": "function"
    },
    {
      "inputs": [],
      "name": "wallet",
      "outputs": [
        {
          "internalType": "address payable",
          "name": "",
          "type": "address"
        }
      ],
      "stateMutability": "view",
      "type": "function"
    },
    {
      "inputs": [],
      "name": "weiRaised",
      "outputs": [
        {
          "internalType": "uint256",
          "name": "",
          "type": "uint256"
        }
      ],
      "stateMutability": "view",
      "type": "function"
    },
    {
      "stateMutability": "payable",
      "type": "receive"
    }
  ],
  "bytecode": "0x60806040523480156200001157600080fd5b50604051620012513803806200125183398101604081905262000034916200037c565b60016000558383868a8a8a878784620000945760405162461bcd60e51b815260206004820152601460248201527f43726f776473616c653a2072617465206973203000000000000000000000000060448201526064015b60405180910390fd5b6001600160a01b038416620000fa5760405162461bcd60e51b815260206004820152602560248201527f43726f776473616c653a2077616c6c657420697320746865207a65726f206164604482015264647265737360d81b60648201526084016200008b565b6001600160a01b0383166200015e5760405162461bcd60e51b8152602060048201526024808201527f43726f776473616c653a20746f6b656e20697320746865207a65726f206164646044820152637265737360e01b60648201526084016200008b565b600394909455600280546001600160a01b03199081166001600160a01b039586161790915560018054909116928416929092179091556005556006919091558116620002135760405162461bcd60e51b815260206004820152603460248201527f416c6c6f77616e636543726f776473616c653a20746f6b656e2077616c6c657460448201527f20697320746865207a65726f206164647265737300000000000000000000000060648201526084016200008b565b600780546001600160a01b0319166001600160a01b0392909216919091179055620002456200023f3390565b6200032a565b42821015620002ac5760405162461bcd60e51b815260206004820152603360248201526000805160206200123183398151915260448201527f6265666f72652063757272656e742074696d650000000000000000000000000060648201526084016200008b565b818111620003125760405162461bcd60e51b815260206004820152603760248201526000805160206200123183398151915260448201527f6e6f74206265666f726520636c6f73696e672074696d6500000000000000000060648201526084016200008b565b600991909155600a5550620004179650505050505050565b600880546001600160a01b038381166001600160a01b0319831681179093556040519116919082907f8be0079c531659141344cd1fd0a4f28419497f9722a3daafe3b4186f6b6457e090600090a35050565b600080600080600080600080610100898b03121562000399578384fd5b885197506020890151620003ad81620003fe565b60408a0151909750620003c081620003fe565b60608a0151909650620003d381620003fe565b60808a015160a08b015160c08c015160e0909c01519a9d999c50979a91999098919650945092505050565b6001600160a01b03811681146200041457600080fd5b50565b610e0a80620004276000396000f3fe6080604052600436106100f75760003560e01c80638da5cb5b1161008a578063bff99c6c11610059578063bff99c6c14610266578063ec8ac4d814610284578063f2fde38b14610292578063fc0c546a146102b257600080fd5b80638da5cb5b146101fe5780638f4f3a3c1461021c578063b7a8807c1461023c578063bf5839031461025157600080fd5b806347535d7b116100c657806347535d7b1461018d5780634b6753bc146101a2578063521eb273146101b7578063715018a6146101e957600080fd5b806312550e9e146101115780631515bc2b146101315780632c4e722e146101595780634042b66f1461017857600080fd5b3661010c5761010a336102d0565b6102d0565b005b600080fd5b34801561011d57600080fd5b5061010a61012c366004610ca7565b6103b8565b34801561013d57600080fd5b50600a5442115b60405190151581526020015b60405180910390f35b34801561016557600080fd5b506003545b604051908152602001610150565b34801561018457600080fd5b5060045461016a565b34801561019957600080fd5b50610144610423565b3480156101ae57600080fd5b50600a5461016a565b3480156101c357600080fd5b506002546001600160a01b03165b6040516001600160a01b039091168152602001610150565b3480156101f557600080fd5b5061010a61043e565b34801561020a57600080fd5b506008546001600160a01b03166101d1565b34801561022857600080fd5b5061010a610237366004610ca7565b610474565b34801561024857600080fd5b5060095461016a565b34801561025d57600080fd5b5061016a6104df565b34801561027257600080fd5b506007546001600160a01b03166101d1565b61010a610105366004610c60565b34801561029e57600080fd5b5061010a6102ad366004610c60565b610605565b3480156102be57600080fd5b506001546001600160a01b03166101d1565b600260005414156103285760405162461bcd60e51b815260206004820152601f60248201527f5265656e7472616e637947756172643a207265656e7472616e742063616c6c0060448201526064015b60405180910390fd5b60026000553461033882826106a0565b6000610343826106fd565b9050816004546103539190610d5b565b6004556103608382610713565b60408051838152602081018390526001600160a01b0385169133917f6faf93231a456e552dbc9961f58d9713ee4f2e69d15f1975b050ef0911053a7b910160405180910390a36103ae61071d565b5050600160005550565b6008546001600160a01b031633146103e25760405162461bcd60e51b815260040161031f90610d26565b600a5460408051918252602082018390527ffe9bbf804a26250032e95e92804bd71149f836a6fe4c8711dab7ea03c30f9a03910160405180910390a1600a55565b600060095442101580156104395750600a544211155b905090565b6008546001600160a01b031633146104685760405162461bcd60e51b815260040161031f90610d26565b6104726000610756565b565b6008546001600160a01b0316331461049e5760405162461bcd60e51b815260040161031f90610d26565b60095460408051918252602082018390527f5219fa872c2bfc80bdf70a5437c3b5abdbd16e5f9f9cb268b10da0c6b402e977910160405180910390a1600955565b60006104396104f66001546001600160a01b031690565b6007546040516370a0823160e01b81526001600160a01b0391821660048201529116906370a082319060240160206040518083038186803b15801561053a57600080fd5b505afa15801561054e573d6000803e3d6000fd5b505050506040513d601f19601f820116820180604052508101906105729190610cbf565b6001546001600160a01b0316600754604051636eb1769f60e11b81526001600160a01b03918216600482015230602482015291169063dd62ed3e9060440160206040518083038186803b1580156105c857600080fd5b505afa1580156105dc573d6000803e3d6000fd5b505050506040513d601f19601f820116820180604052508101906106009190610cbf565b6107a8565b6008546001600160a01b0316331461062f5760405162461bcd60e51b815260040161031f90610d26565b6001600160a01b0381166106945760405162461bcd60e51b815260206004820152602660248201527f4f776e61626c653a206e6577206f776e657220697320746865207a65726f206160448201526564647265737360d01b606482015260840161031f565b61069d81610756565b50565b6106a8610423565b6106ef5760405162461bcd60e51b81526020600482015260186024820152772a34b6b2b221b937bbb239b0b6329d103737ba1037b832b760411b604482015260640161031f565b6106f982826107c0565b5050565b60006003548261070d9190610d73565b92915050565b6106f98282610819565b6002546040516001600160a01b03909116903480156108fc02916000818181858888f1935050505015801561069d573d6000803e3d6000fd5b600880546001600160a01b038381166001600160a01b0319831681179093556040519116919082907f8be0079c531659141344cd1fd0a4f28419497f9722a3daafe3b4186f6b6457e090600090a35050565b60008183106107b757816107b9565b825b9392505050565b6107c8610423565b61080f5760405162461bcd60e51b81526020600482015260186024820152772a34b6b2b221b937bbb239b0b6329d103737ba1037b832b760411b604482015260640161031f565b6106f98282610823565b6106f9828261097d565b6001600160a01b03821661088c5760405162461bcd60e51b815260206004820152602a60248201527f43726f776473616c653a2062656e656669636961727920697320746865207a65604482015269726f206164647265737360b01b606482015260840161031f565b806108d95760405162461bcd60e51b815260206004820152601960248201527f43726f776473616c653a20776569416d6f756e74206973203000000000000000604482015260640161031f565b60055481101561092b5760405162461bcd60e51b815260206004820181905260248201527f43726f7773616c653a20776569416d6f756e7420697320746f6f20736d616c6c604482015260640161031f565b6006548111156106f95760405162461bcd60e51b815260206004820152601f60248201527f43726f7773616c653a20776569416d6f756e7420697320746f6f206d75636800604482015260640161031f565b6007546106f9906001600160a01b031683836109a16001546001600160a01b031690565b604080516001600160a01b038681166024830152858116604483015260648083018690528351808403909101815260849092019092526020810180516001600160e01b03166323b872dd60e01b179052911693929190610a02908590610a08565b50505050565b6000610a5d826040518060400160405280602081526020017f5361666545524332303a206c6f772d6c6576656c2063616c6c206661696c6564815250856001600160a01b0316610adf9092919063ffffffff16565b805190915015610ada5780806020019051810190610a7b9190610c87565b610ada5760405162461bcd60e51b815260206004820152602a60248201527f5361666545524332303a204552433230206f7065726174696f6e20646964206e6044820152691bdd081cdd58d8d9595960b21b606482015260840161031f565b505050565b6060610aee8484600085610af6565b949350505050565b606082471015610b575760405162461bcd60e51b815260206004820152602660248201527f416464726573733a20696e73756666696369656e742062616c616e636520666f6044820152651c8818d85b1b60d21b606482015260840161031f565b6001600160a01b0385163b610bae5760405162461bcd60e51b815260206004820152601d60248201527f416464726573733a2063616c6c20746f206e6f6e2d636f6e7472616374000000604482015260640161031f565b600080866001600160a01b03168587604051610bca9190610cd7565b60006040518083038185875af1925050503d8060008114610c07576040519150601f19603f3d011682016040523d82523d6000602084013e610c0c565b606091505b5091509150610c1c828286610c27565b979650505050505050565b60608315610c365750816107b9565b825115610c465782518084602001fd5b8160405162461bcd60e51b815260040161031f9190610cf3565b600060208284031215610c71578081fd5b81356001600160a01b03811681146107b9578182fd5b600060208284031215610c98578081fd5b815180151581146107b9578182fd5b600060208284031215610cb8578081fd5b5035919050565b600060208284031215610cd0578081fd5b5051919050565b60008251610ce9818460208701610d92565b9190910192915050565b6020815260008251806020840152610d12816040850160208701610d92565b601f01601f19169190910160400192915050565b6020808252818101527f4f776e61626c653a2063616c6c6572206973206e6f7420746865206f776e6572604082015260600190565b60008219821115610d6e57610d6e610dbe565b500190565b6000816000190483118215151615610d8d57610d8d610dbe565b500290565b60005b83811015610dad578181015183820152602001610d95565b83811115610a025750506000910152565b634e487b7160e01b600052601160045260246000fdfea264697066735822122019301ad0be1388f2ad7323bfa9d01869527df8aeb8d2922302cfd77b0dfe1a8b64736f6c6343000804003354696d656443726f776473616c653a206f70656e696e672074696d6520697320",
  "linkReferences": {},
  "deployedLinkReferences": {}
}